:020000040800F2
:10000000D80700202902000833110008ED0E00086F
:1000100031110008D9020008951300080000000003
:10002000000000000000000000000000D5110008E2
:10003000DB0200080000000055110008D71100087D
:10004000430200084302000843020008430200087C
:10005000430200084302000843020008430200086C
:10006000430200084302000843020008430200085C
:10007000430200084302000843020008430200084C
:10008000430200084302000843020008430200083C
:10009000430200084302000843020008430200082C
:1000A000430200084302000843020008430200081C
:1000B000430200084302000843020008430200080C
:1000C00043020008430200084302000843020008FC
:1000D00043020008291300084302000843020008F5
:1000E00043020008430200084302000843020008DC
:1000F00043020008430200084302000843020008CC
:1001000043020008430200084302000843020008BB
:1001100043020008430200084302000843020008AB
:10012000430200084302000843020008430200089B
:10013000430200084302000843020008430200088B
:10014000430200084302000843020008430200087B
:10015000430200084302000843020008430200086B
:10016000430200084302000843020008430200085B
:1001700043020008430200080000000000000000E5
:10018000430200084302000800F002F800F03CF8C7
:100190000AA090E8000C82448344AAF10107DA45E2
:1001A00001D100F031F8AFF2090EBAE80F0013F0F8
:1001B000010F18BFFB1A43F0010318478C1400000D
:1001C000AC140000103A24BF78C878C1FAD852079E
:1001D00024BF30C830C144BF04680C6070470000C1
:1001E0000023002400250026103A28BF78C1FBD840
:1001F000520728BF30C148BF0B6070471FB501F0E0
:10020000EFF91FBD10B510BD00F033F81146FFF730
:10021000F5FF01F0D9F900F051F803B4FFF7F2FF50
:1002200003BC01F0B8F800000948804709480047BE
:10023000FEE7FEE7FEE7FEE7FEE7FEE7FEE7FEE796
:10024000FEE7FEE704480549054A064B70470000F3
:100250004D12000889010008D8010020D8070020AD
:10026000D8030020D80300207047704770477047BC
:100270007047754600F02CF8AE46050069465346B7
:1002800020F00700854618B020B5FFF7DBFFBDE87A
:1002900020404FF000064FF000074FF000084FF0ED
:1002A000000B21F00701AC46ACE8C009ACE8C0097E
:1002B000ACE8C009ACE8C0098D46704710B50446EB
:1002C000AFF300802046BDE81040FFF7A6BF000056
:1002D0000048704778010020FEE7704710B590F89D
:1002E00025100024022903D00421C16301241AE04F
:1002F00001680A6822F00E020A6001680A6822F0AA
:1003000001020A6090F84410012301F01C0203FA74
:1003100002F1026C516080F82530002180F8241031
:10032000816B01B18847204610BD00002DE9F84FD0
:10033000DFF8A091002209F1040A0AF1040B4FF042
:100340000F080BF1040EBEE001249440234075D049
:100350004D68022D01D0122D11D1D50800EB850773
:100360003E6A5507ED0E08FA05FC26EA0C06D1F8A0
:1003700010C00CFA05FC4CEA060CC7F820C0076850
:100380005500032691F804C0AE400CF0030CB743AF
:100390000CFA05FC4CEA070CC0F800C04F68012FAE
:1003A00005D0022F03D0112F01D0122F15D187684D
:1003B000D1F80CC0B7430CFA05FC4CEA070CC0F8A6
:1003C00008C0476891F804C0A743CCF3001C0CFA9E
:1003D00002FC4CEA070CC0F804C0D1F804C06FEA74
:1003E0000C07BF0706D1C76AA743CCF3C0049440EB
:1003F0003C43C462C468B4438E68AE402643C660C2
:100400004C68E4005ED5344C256E45F00105256648
:10041000246E22F0030504F0010400942F4C2E19E1
:10042000B7689407250F08FA05F4A743B0F1904F79
:1004300005D02B4CA04204D101241CE042E0002452
:1004400019E0284CA04201D1022414E0264CA0421D
:1004500001D103240FE0254CA04201D104240AE07D
:10046000234CA04201D1052405E0224CA04201D139
:10047000062400E00724AC403C43B460D9F80040B7
:100480004D464E689C43F60300D51C432C60DAF8B9
:10049000004055464E689C43B60300D51C432C6073
:1004A000DBF800405D464E689C43F60200D51C43D5
:1004B0002C60DEF8004075464E689C43B60200D5BD
:1004C0001C432C60521C0B6833FA02F47FF43CAFDF
:1004D00000F012B80004014000100240000001408A
:1004E0000004004800080048000C004800100048C4
:1004F000001400480018004818BCBDE8E08F0AB19D
:100500008161704781627047014800687047000050
:100510000400002002480168491C01607047000087
:100520000400002010B50024052000F045F800204C
:1005300000F008F808B1012401E000F01BF82046A3
:1005400010BD000070B5054609484FF47A710024CB
:100550000068B0FBF1F000F099FB08B1012404E061
:1005600000222946501E00F007F8204670BD00000A
:100570000000002070470000F0B40E4B1B68C3F36E
:100580000223C3F10704042C00D904241D1D072DE8
:1005900001D2002300E0DB1E012606FA04F56D1EE1
:1005A0000D409D409E40761E164045EA0601F0BC77
:1005B00000F0C0BD0CED00E0064A00F00701106835
:1005C0004FF6FF03184040EA01200349084310603A
:1005D000704700000CED00E00000FA051649B0F588
:1005E000007F0868C0F3412009D0022805D00868C0
:1005F00020F4C06040F4806008600020704701284B
:10060000FBD0086820F4C06040F4007008600B481C
:100610003222006850430A4AB0FBF2F0401C00E06E
:10062000401E4A69520501D50028F9D148694005A4
:10063000E3D5032070470000007000400000002058
:1006400040420F000248006800F4C060704700009C
:10065000007000402DE9F0470D4604005ED0DFF841
:100660000881D8F8000000F00700A8420CD2D8F8A2
:10067000001021F007012943C8F80010D8F8000045
:1006800000F00700A84249D12078384EC0072BD08F
:100690006068032811D0022812D0316898B149054A
:1006A00000293BDAB16821F003010143B160FFF793
:1006B0002BFF074641F288390FE031688901EFE7E7
:1006C00031688903ECE78907EAE7FFF71DFFC11BE3
:1006D000494502D90320BDE8F087B068616800F0A1
:1006E0000C00B0EB810FF0D12078800705D5B06801
:1006F000A16820F0F0000843B060D8F80010404630
:1007000001F00701A9420BD9016821F00701294333
:100710000160006800F00700A84201D00120DAE77C
:100720002078400705D5B068E16820F4E060084310
:10073000B0602078000706D5B068216920F46050C9
:1007400040EAC100B06000F017F8B168084AC1F390
:100750000311515C01F01F01C84006490860BDE863
:10076000F0470020FFF7EEBE0020024000100240DC
:10077000EC1500080000002070B5264B0022104642
:100780009968DC6811F00C0104F00306224C4FEA72
:10079000640508D00C2904D0042925D0082925D0C7
:1007A00010E0012E10D11A68120704D4D3F8942057
:1007B000C2F3032202E01A68C2F30312174E56F87E
:1007C000222079B10C290ED1D86800F00301D86835
:1007D000C0F30210401C02290AD003290BD0B2FB3F
:1007E000F0F00AE0104670BD204670BD284670BD8E
:1007F000B4FBF0F001E0B5FBF0F0D968C1F30621DD
:100800004843D968C1F34161491C4900B0FBF1F08C
:1008100070BD0000001002400024F400FC15000828
:100820002DE9F84304007CD0FA4DA86800F00C06CE
:10083000E86800F003072078C00662D576B10C2E78
:1008400001D1012F0AD0A0690028286878D040F093
:1008500001002860FFF758FE804659E028688007AD
:1008600002D5A0690028DED0216A2868000703D5D8
:10087000286800F0F00004E0D5F89400F02202EAC5
:100880001010814216D9084600F066FC002848D1B5
:10089000286840F0080028602868216A20F0F000ED
:1008A000084328606868E16920F47F4040EA01203D
:1008B000686015E0286840F0080028602868216A10
:1008C00020F0F000084328606868E16920F47F4068
:1008D00040EA01206860206A00F03EFC0028D6D182
:1008E000FFF74AFFA968CC4AC1F30311515C01F03C
:1008F0001F01C840C94908600020FFF723FE0028F7
:100900007ED12DE0FFF700FEA0EB0800022878D88A
:1009100028688007F6D5286840F008002860286815
:1009200001E0B8E00CE0216A20F0F0000843286004
:100930006868E16920F47F4040EA012068600FE0C8
:1009400020F001002860FFF7DFFD804605E0FFF79B
:10095000DBFDA0EB08000228D9D828688007F6D470
:100960002078C00740D0082E18D00C2E01D1032FBC
:1009700014D06068B0F5803F17D0B0F5A02F28687C
:1009800017D020F480302860286820F48020286068
:100990006068E0B1FFF7B8FD804614E02868800386
:1009A00022D56068002876D01EE0286840F48030A8
:1009B000EDE740F480202860F7E7FFF7A5FDA0EB06
:1009C00008006428A3D828688003F6D50CE0FFF758
:1009D0009BFD804605E0FFF797FDA0EB080064282B
:1009E00095D828688003F6D42078800739D5042E5E
:1009F00011D00C2E01D1022F0DD0E068002801E0AB
:100A00002DE19BE028681DD040F480702860FFF73E
:100A10007BFD07460BE0286840050BD5E068002801
:100A2000C1D007E0FFF770FDC01B022894D82868EA
:100A30004005F7D56868217C20F0F85040EA016055
:100A400068600EE020F480702860FFF75DFD0746C7
:100A500004E0FFF759FDC01B02286FD82868400545
:100A6000F7D42078000728D560690028D5F89400CD
:100A700012D040F00100C5F89400FFF745FD07468D
:100A800004E0FFF741FDC01B022857D8D5F89400B9
:100A90008007F6D511E0E9E020F00100C5F89400E8
:100AA000FFF732FD074604E0FFF72EFDC01B0228CA
:100AB00044D8D5F894008007F6D42078400766D54E
:100AC000A86D4FF00008C00009D4A86D40F0805018
:100AD000A865A86D4FF0010800F0805000905048C4
:100AE0000168C90511D40168814641F48071016033
:100AF000FFF70AFD074604E0FFF706FDC01B0228CA
:100B00001CD8D9F80000C005F6D5A068012816D079
:100B10000528D5F8900017D020F00100C5F8900006
:100B2000D5F8900020F00400C5F89000A06841F2CC
:100B30008839C0B1FFF7E8FC07460FE069E0D5F857
:100B4000900040F00100EFE740F00400C5F890008D
:100B5000F5E7FFF7D9FCC11B49457FD8D5F89000D0
:100B60008007F6D50CE0FFF7CFFC074604E0FFF75F
:100B7000CBFCC11B494571D8D5F890008007F6D44D
:100B8000B8F1000F03D0A86D20F08050A865A06ACE
:100B9000F0B30C2E6AD00228286820F080702860FC
:100BA00004D0286810F0205F47D04AE0FFF7ACFC83
:100BB000064604E0FFF7A8FC801B02284ED82868F0
:100BC0008001F7D4206BE16A000110380843616BA3
:100BD000A26B0902120941EA42410843A18F114A5E
:100BE000490802EB4151084394F8401049081201AA
:100BF00002EB41610843E860286840F0807028609B
:100C0000E86840F08070E860FFF77EFC044610E082
:100C10002AE023E000100240EC150008000000204C
:100C2000007000400000E0FFFFF76EFC001B022890
:100C300014D828688001F7D516E0E86820F0030092
:100C4000E860E8680A490840E860FFF75DFC044690
:100C500007E0FFF759FC001B022802D90320BDE87A
:100C6000F88328688001F4D40020F8E70120F6E733
:100C7000FFFFEEFE4FF0E0210428086903D020F0CA
:100C800004000861704740F00400FAE710B5401E08
:100C9000B0F1807F01D3012010BD4FF0E0246061EE
:100CA0000F21601700F046FA0020A06107202061A4
:100CB000002010BD704770472DE9F04102680446DE
:100CC000D0691168936810F00F0F4FF000055BD0EA
:100CD00003F0010601F49077374369D0C70707D0C6
:100CE000CF0505D501271762626F42F001026267E6
:100CF000820708D5DA0706D0276802223A62626FB7
:100D000042F004026267420708D5DA0706D023687A
:100D100004221A62626F42F00202626702070AD579
:100D200001F02002324306D0236808221A62626F63
:100D300042F008026267626F002A32D0800605D551
:100D4000880603D5216E09B120468847606F0007E9
:100D500003D420688068400625D5204600F0A2FA1A
:100D600020688168490619D5816821F040018160B9
:100D7000E06E98B120498163E06EFFF7AFFA00287A
:100D80000FD0E06E816B06E0860611D58E060FD57A
:100D9000216E1EE02046BDE8F04108472046FFF7DF
:100DA0008AFFBDE8F0812046FFF785FF6567F8E719
:100DB000C60209D55B0207D54FF4801010622046A9
:100DC000BDE8F041FFF776BF030605D50B0603D556
:100DD000616E0029DED1E4E74006E2D54806E0D5A1
:100DE0001168204621F040011160202184F8711023
:100DF000656600F07AF8D4E7911200082DE9F84F03
:100E0000044690F87200984616460D46202867D191
:100E1000FDB1F6B194F87000012861D0012084F88A
:100E200070004FF00009C4F87490222084F872001A
:100E30005434FFF769FBA6808246E68054F84C0CD8
:100E40004FF48057FF21543CB84208D1206918B1B3
:100E50000DE0012000F046B840F2FF100DE07F22C7
:100E600018B1B0F1805F05D009E0206950B9A4F84D
:100E70005C1004E0206928B13F20A4F85C00B4F8BD
:100E80005C601CE0A4F85C20F9E7534600222021B6
:100E90002046CDF8008000F015FA08B10320D9E70C
:100EA000A068B84201D12069A0B12068808C304090
:100EB00005F8010BB4F85A00401EA4F85A00B4F823
:100EC0005A000028E1D1202084F8720084F8709044
:100ED0000020BFE72068808C304025F8020BE9E74E
:100EE0000220B7E718BCBDE8E08F7047FEE70000BE
:100EF00030B50F4887B0C16C41F01001C164C06CBF
:100F00004FF4607400F0100005900120CDE900401E
:100F100002900220074D039069462846FFF706FA23
:100F2000012221462846FFF7EAFA07B030BD00004B
:100F3000001002400010004828B10146002008605F
:100F40004860886070474FF0FF3070472DE9F04FE0
:100F50009946DDE90CEA06680023DDF82CB031443F
:100F600001601C461D4619464CF2503875E0477A20
:100F7000ACF5404CACF5547CC0F800C0037947F3A5
:100F800000065B1CDBB20125761C0371032B59D9CB
:100F9000002301711C46BF0701D4022300E0022494
:100FA00047797F1CFFB24771012F04D0022F05D073
:100FB000062F07D105E043F0040303E044F00404E6
:100FC00000E0417187797F1CFFB28771092F0DD234
:100FD000DFE807F00C050805080C0C0C0B0043F0CB
:100FE000080303E044F0080400E08171C7797F1C26
:100FF000FFB2C7710B2F0ED2DFE807F00D0609060E
:101000000906090D0D0D0C0043F0100303E044F038
:10101000100400E0C171077A7F1CFFB207720D2F28
:1010200015D2DFE807F014070A070A070A070A14AF
:1010300014140D0043F0200309E044F0200406E0FE
:10104000017204E0847A07F07E0304F07E0416B196
:1010500043F0010301E044F00104D0F800C0C445AE
:1010600085D2002D3CD0099909B101211EE02AB199
:10107000BBF1000F05D003F0200117E003F00101E0
:1010800014E0BEF1000F02D003F010010EE0BAF13F
:10109000000F02D003F0080108E00A9911B103F033
:1010A000040103E00E9909B103F00201B9F1000F48
:1010B00002D004F001020BE00F9D15B104F0100204
:1010C00006E0042A0ED07F2A0FD0052A10D0002275
:1010D00009B143F080030AB144F080044372847282
:1010E00000F008B804F00402F2E704F00202EFE7AF
:1010F0000122EDE730BCBDE8C08F000010B54FF015
:10110000E02043698069094A00215024C2E90401B2
:10111000D168884201D8091A01E01B1A1944B1FBB1
:10112000F4F15161D060084610BD000014000020A9
:10113000FEE770470907090E002806DA00F00F00E5
:1011400000F1E02080F8141D704700F1E02080F8E5
:101150000014704770470000F8B51C4E0546002487
:10116000B06DC00002D5FFF76DFA0DE0B06D40F034
:101170008050B065B06D00F080500090FFF762FACB
:10118000B16D21F08051B165B0F5007F04D0802DA4
:1011900007D94FF003040AE0802D08D9A02D01D80B
:1011A00004E001D1022402E0702D00D1012408489E
:1011B000016821F0070121430160006800F0070089
:1011C000A04201D00120F8BD0020F8BD001002406F
:1011D000002002407047FFF79DB900001A4810B583
:1011E000816D98B041F080518165806D012100F0E2
:1011F000805016900804CDE90010022003240A90C4
:10120000CDE90B4114210D910721CDE90E1010906D
:101210006846FFF705FB00B1FEE70F20CDE911049A
:101220000020139014901590042111A8FFF712FAD2
:1012300000B1FEE74FF40070FFF7D0F9002800D0AE
:10124000FEE718B010BD0000001002400D48016814
:1012500041F4700101600C48016841F00101016036
:10126000002181600268094B1A4002608214C2604A
:10127000026822F48022026081610249C003803941
:101280000860704788ED00E000100240FFFFF6EABA
:1012900010B5806A0021A0F85A10A0F85210FFF78C
:1012A0000AFD10BD01680A6822F490720A600168A4
:1012B0008A6822F001028A60202180F872100021E1
:1012C000016670472DE9F0411E46174688460446E0
:1012D000069D1CE0681C1AD025B1FFF715F9801B8C
:1012E000A84214D92068016821F4D07101602068F7
:1012F000816821F001018160202084F8710084F868
:101300007200002084F870000320BDE8F08120689E
:10131000C16938EA010004D00020B842DAD00020C8
:10132000F3E70120F9E7000038B518480068C06904
:10133000C043800622D44FF47A73012269461348D1
:10134000FFF75CFD124A1088010417D441049DF890
:1013500000104FF0000304D50A290ED140F40040DC
:1013600012E00D290ED0C0F30D04084D401CC83DFD
:1013700080B229551080C72800D913800348FFF791
:101380009BFC38BD40F480401080F7E7F40000205B
:101390000C000020FEE7704770B50C4C0C4D607AD5
:1013A000010601D5002200E0012280212846FFF736
:1013B000A6F8A07A4FF48071000601D5002200E063
:1013C00001222846BDE87040FFF799B86C01002063
:1013D000001000482DE9F0472B490878022804D076
:1013E00003284ED00720BDE8F0878A464878274971
:1013F000465C491CA1F1120710F801903CE0B819B5
:10140000214B847B9B1C3819641C807800F00F0CE6
:1014100005093819641C807800F00F080020761C3C
:1014200007E0391989787A5CD25C8A4224D1401C61
:10143000641C4045F5D30021D0460EE03819641CE9
:1014400080783A5C08EB0203DA78FF2A03D0824204
:1014500002D00320C7E7D870491C6145EED3DFF8FE
:101460002C80A8F115083DB13819641C80786D1ED8
:1014700058F820008047F6E74E45C0D303218AF88C
:1014800000100020AFE700000E0000204116000809
:101490000020064BFF221918401CCA708A7010F0F9
:1014A000FF00F8D001201870704700000E000020E7
:1014B00070B50F4C217819B1032803D3042070BDF7
:1014C0000A2070BD607002202070FFF783FF0028A3
:1014D000F7D10021FF256218D378FF2B01D093703C
:1014E000D570491C11F0FF01F5D00121217070BDAC
:1014F0000E000020FFF7CCBF10B50848FFF71CFD19
:10150000FFF7F8FF064C00206072FFF7D1FF0120C3
:101510006072BDE81040FFF7CBBF00006C010020F7
:10152000140000202DE9F04F154C87B0207A01906F
:1015300094F807A094F8059094F80480E778A279CD
:10154000009294F802B0667894F90050FFF7D6FD47
:10155000014601983346CDE905A0CDE90389009AFB
:10156000CDF800B0CDE901272A460648FFF7EEFC8A
:101570000220607207B000F007B8FFF799BF0000C3
:10158000140000206C01002030BCBDE8C04FFFF704
:10159000F4BF000010B504460420FFF76BFB0148C0
:1015A000046010BD0800002010B5FFF7A1FCFFF794
:1015B000A3FF4FF0E02080690149086010BD0000E2
:1015C00020000020FFF7AEBFFEF7ACFFFFF706FEDE
:1015D0005020FFF7DFFFFFF7E7FFFFF7F3FFFCE720
:1015E0004FF04070E1EE100A70470000000000006C
:1015F000000000000102030406070809A08601009C
:10160000400D0300801A060000350C0040420F0018
:1016100080841E0000093D0000127A000024F400BE
:1016200000366E010048E801006CDC0299130008E6
:10163000000001000001010001110101010000038F
:1016400007000102030000006816000800000020E7
:101650002C000000C4010008941600082C00002093
:10166000AC070000E001000800093D000000000098
:101670000000000000000000000000000500000065
:101680000000000001000000000000000000000059
:041690000000000056
:040000050800018965
:00000001FF
